:060000000A128A11552CC2
:10080000FE00FE1F082C83137E18831700080800C3
:100810000408FE0004308A007E0882070034423457
:100820006F34643479342034543465346D34703426
:1008300028344634293420340034573445344C3479
:1008400043344F344D344534003402300A128A1197
:1008500088250A128A1128300A128A1188250A125C
:100860008A1106300A128A1188250A128A110C3060
:100870000A128A1188250A128A1101300A128A1175
:1008800088250A128A1108000130F6020030031C84
:10089000F703F702FF307706031D502CFF30760672
:1008A000031D532C542C442C0800F001F101F201DB
:1008B000F301F401F501B301B401B501B6018301FF
:0608C0000A128A11B42E99
:1009FC0083120313A3000030A4000030A5001A2DAD
:100A0C00230824070A128A1109240A128A110A12CD
:100A1C008A1152250A128A11013083120313A4077A
:100A2C000318A50A0030A507230824070A128A1107
:100A3C0009240A128A110038031D252D262D062D96
:100A4C0008000030F6000030F70083120313201C5E
:100A5C00302D312D372D2208F6070318F70A2308FD
:100A6C00F70701300310A20DA30DFF3E031D382D17
:100A7C0001300310A10CA00CFF3E031D3F2D2108DB
:100A8C002004031D4A2D4B2D2B2D7708A101A10706
:100A9C007608A001A007080083120313A200220805
:100AAC00F0398800081488100815C830F60000309A
:100ABC00F7000A128A1144240A128A1183120313B2
:100ACC0008112208F800F9010430FA000310F80D9F
:100ADC00F90DFA0B6C2D7808A0007908A1002008FC
:100AEC00F0398800081488100815C830F60000305A
:100AFC00F7000A128A1144240A128A118312031372
:100B0C000811080083120313A2002208F039880090
:100B1C00081088100815C830F6000030F7000A12CB
:100B2C008A1144240A128A11831203130811220811
:100B3C00F800F9010430FA000310F80DF90DFA0B66
:100B4C00A22D7808A0007908A1002008F0398800AF
:100B5C00081088100815C830F6000030F7000A128B
:100B6C008A1144240A128A118312031308110800F3
:100B7C0083120313230822040319C52DC62DF62D49
:100B8C00F7010314F70DD52D01300310A20DA30DA1
:100B9C00FF3E031DCB2D0130F6007608F707A31F8F
:100BAC00D82DD92DCA2D23082102031DDF2D220893
:100BBC002002031CE22DE32DE92D2208A0022308BC
:100BCC00031CA103A10201300310A30CA20CFF3ED5
:100BDC00031DEA2D0130F702031DF52DF62DD92D3D
:100BEC000800003083120313A4000030A5002A086B
:100BFC0029040319022E032E3B2EA6010314A60D65
:100C0C00122E01300310A90DAA0DFF3E031D082E54
:100C1C000130F8007808A607AA1F152E162E072EED
:100C2C0001300310A40DA50DFF3E031D172E2A083D
:100C3C002802031D232E29082702031C262E272EEB
:100C4C002E2E2908A7022A08031CA803A802241484
:100C5C0001300310AA0CA90CFF3E031D2F2E0130EE
:100C6C00A602031D3A2E3B2E162E2508A801A80716
:100C7C002408A701A707080003100030031801304F
:100C8C0083120313A500AB1F4C2E4D2E552EAA0913
:100C9C00AB09AA0A0319AB0AA5010314A50DA91FD8
:100CAC00582E592E622EA809A909A80A0319A90AB7
:100CBC000130F8007808A5060030A6000030A70027
:100CCC002B082A0403196B2E6C2EA42EA4010314DA
:100CDC00A40D7B2E01300310AA0DAB0DFF3E031D9E
:100CEC00712E0130F8007808A407AB1F7E2E7F2EE2
:100CFC00702E01300310A60DA70DFF3E031D802E94
:100D0C002B082902031D8C2E2A082802031C8F2E67
:100D1C00902E972E2A08A8022B08031CA903A902BF
:100D2C00261401300310AB0CAA0CFF3E031D982EA9
:100D3C000130A402031DA32EA42E7F2E2508031D13
:100D4C00A82EAD2EA609A709A60A0319A70A2708DB
:100D5C00A901A9072608A801A807080040309F0090
:100D6C008E30831603139F000310003003180130DC
:100D7C00880003100030031801308312031388001D
:100D8C000A128A1125240A128A11C830F600003082
:100D9C00F7000A128A1144240A128A1180300A12AE
:100DAC008A1188250A128A110F300A128A11FE2420
:100DBC000A128A115030F600C330F7000A128A1159
:100DCC0044240A128A11831203139F121F129F11BB
:100DDC001F145830F6000230F7000A128A1144240E
:100DEC000A128A11831203131F08043E9F00583005
:100DFC00F6000230F7000A128A1144240A128A11F2
:100E0C00831203131E08AC00AD010830AE000310B2
:100E1C00AC0DAD0DAE0B0D2F2C08F0002D08F10014
:100E2C005830F6000230F7000A128A1144240A12D4
:100E3C008A11831603131E087007F000710803183B
:100E4C00710AF100710883120313AD007008AC0035
:100E5C0001300310AD0CAC0CFF3E031D2F2F2C08E2
:100E6C00B1002D08B2003208A101A1073108A00180
:100E7C00A0070930A2000030A3000A128A1127250E
:100E8C000A128A118313831203132108A901A907DB
:100E9C002008A801A8070530AA000030AB000A12F0
:100EAC008A1142260A128A1183138312031328080B
:100EBC00203EF20029080318013E003EF30073089F
:100ECC00A801A8077208A701A7076430A900003081
:100EDC00AA000A128A11F7250A128A1183138312A7
:100EEC0003132808B401B4072708B301B307730828
:100EFC00A101A1077208A001A0076430A200003074
:100F0C00A3000A128A11BE250A128A1183138312B6
:100F1C0003132108A801A8072008A701A7070A3076
:100F2C00A9000030AA000A128A11F7250A128A11A8
:100F3C008313831203132808B601B6072708B501DB
:100F4C00B5077308A101A1077208A001A0076430BE
:100F5C00A2000030A3000A128A11BE250A128A11BF
:100F6C008313831203132108B001B0072008AF01CB
:100F7C00AF073008A101A1072F08A001A0070A3074
:100F8C00A2000030A3000A128A11BE250A128A118F
:100F9C008313831203132108F501F5072008F401CC
:100FAC00F407C0300A128A1188250A128A110130FE
:100FBC000A128A11FE240A128A11831203133308AF
:100FCC00303E0A128A1152250A128A118312031317
:100FDC003508303E0A128A1152250A128A117408F9
:100FEC00303E0A128A1152250A128A11E92E0A126F
:040FFC008A1100282E
:02400E00723FFF
:00000001FF
